{
  "contractName": "MainFoodSupplyChain",
  "abi": [
    {
      "inputs": [],
      "stateMutability": "payable",
      "type": "constructor"
    },
    {
      "anonymous": false,
      "inputs": [
        {
          "indexed": false,
          "internalType": "uint256",
          "name": "processingCompany",
          "type": "uint256"
        },
        {
          "indexed": false,
          "internalType": "uint256",
          "name": "packingCompany",
          "type": "uint256"
        },
        {
          "indexed": false,
          "internalType": "uint256",
          "name": "logisticCompany",
          "type": "uint256"
        },
        {
          "indexed": false,
          "internalType": "uint256",
          "name": "retailCompany",
          "type": "uint256"
        }
      ],
      "name": "BlockNumber",
      "type": "event"
    },
    {
      "anonymous": false,
      "inputs": [
        {
          "indexed": false,
          "internalType": "uint256",
          "name": "upc",
          "type": "uint256"
        },
        {
          "indexed": false,
          "internalType": "uint256",
          "name": "sku",
          "type": "uint256"
        },
        {
          "indexed": false,
          "internalType": "string",
          "name": "name",
          "type": "string"
        },
        {
          "indexed": false,
          "internalType": "uint256",
          "name": "price",
          "type": "uint256"
        },
        {
          "indexed": false,
          "internalType": "string",
          "name": "location",
          "type": "string"
        }
      ],
      "name": "History1",
      "type": "event"
    },
    {
      "anonymous": false,
      "inputs": [
        {
          "indexed": false,
          "internalType": "string",
          "name": "date",
          "type": "string"
        },
        {
          "indexed": false,
          "internalType": "address",
          "name": "owner",
          "type": "address"
        },
        {
          "indexed": false,
          "internalType": "uint256",
          "name": "parent_product",
          "type": "uint256"
        },
        {
          "indexed": false,
          "internalType": "enum MainFoodSupplyChain.SupplyChainState",
          "name": "state",
          "type": "uint8"
        }
      ],
      "name": "History2",
      "type": "event"
    },
    {
      "anonymous": false,
      "inputs": [
        {
          "indexed": false,
          "internalType": "address",
          "name": "processing_company",
          "type": "address"
        },
        {
          "indexed": false,
          "internalType": "address",
          "name": "packing_company",
          "type": "address"
        },
        {
          "indexed": false,
          "internalType": "address",
          "name": "logistic_comapny",
          "type": "address"
        },
        {
          "indexed": false,
          "internalType": "address",
          "name": "retail",
          "type": "address"
        }
      ],
      "name": "History3",
      "type": "event"
    },
    {
      "anonymous": false,
      "inputs": [
        {
          "indexed": false,
          "internalType": "uint256",
          "name": "_productUPC",
          "type": "uint256"
        },
        {
          "indexed": false,
          "internalType": "string",
          "name": "_name",
          "type": "string"
        },
        {
          "indexed": false,
          "internalType": "uint256",
          "name": "_step",
          "type": "uint256"
        }
      ],
      "name": "ItemAtPackingFacility",
      "type": "event"
    },
    {
      "anonymous": false,
      "inputs": [
        {
          "indexed": false,
          "internalType": "uint256",
          "name": "_productUPC",
          "type": "uint256"
        },
        {
          "indexed": false,
          "internalType": "string",
          "name": "_name",
          "type": "string"
        },
        {
          "indexed": false,
          "internalType": "uint256",
          "name": "_step",
          "type": "uint256"
        }
      ],
      "name": "ItemInProcessing",
      "type": "event"
    },
    {
      "anonymous": false,
      "inputs": [
        {
          "indexed": false,
          "internalType": "uint256",
          "name": "_productUPC",
          "type": "uint256"
        },
        {
          "indexed": false,
          "internalType": "string",
          "name": "_name",
          "type": "string"
        },
        {
          "indexed": false,
          "internalType": "uint256",
          "name": "_step",
          "type": "uint256"
        }
      ],
      "name": "ItemInTransit",
      "type": "event"
    },
    {
      "anonymous": false,
      "inputs": [
        {
          "indexed": false,
          "internalType": "uint256",
          "name": "_productUPC",
          "type": "uint256"
        },
        {
          "indexed": false,
          "internalType": "string",
          "name": "_name",
          "type": "string"
        },
        {
          "indexed": false,
          "internalType": "uint256",
          "name": "_step",
          "type": "uint256"
        }
      ],
      "name": "ItemProduced",
      "type": "event"
    },
    {
      "anonymous": false,
      "inputs": [
        {
          "indexed": false,
          "internalType": "uint256",
          "name": "_productUPC",
          "type": "uint256"
        },
        {
          "indexed": false,
          "internalType": "string",
          "name": "_name",
          "type": "string"
        },
        {
          "indexed": false,
          "internalType": "uint256",
          "name": "_step",
          "type": "uint256"
        }
      ],
      "name": "ItemReachedAtRetail",
      "type": "event"
    },
    {
      "anonymous": false,
      "inputs": [
        {
          "indexed": false,
          "internalType": "uint256",
          "name": "upc",
          "type": "uint256"
        },
        {
          "indexed": false,
          "internalType": "string",
          "name": "name",
          "type": "string"
        },
        {
          "indexed": false,
          "internalType": "uint256",
          "name": "step",
          "type": "uint256"
        }
      ],
      "name": "getPoductDetails",
      "type": "event"
    },
    {
      "inputs": [
        {
          "internalType": "uint256",
          "name": "_UPC",
          "type": "uint256"
        },
        {
          "internalType": "string",
          "name": "_name",
          "type": "string"
        },
        {
          "internalType": "uint256",
          "name": "_price",
          "type": "uint256"
        },
        {
          "internalType": "string",
          "name": "_location",
          "type": "string"
        },
        {
          "internalType": "string",
          "name": "_date",
          "type": "string"
        },
        {
          "internalType": "uint256",
          "name": "_parent_product",
          "type": "uint256"
        }
      ],
      "name": "produceItem",
      "outputs": [],
      "stateMutability": "nonpayable",
      "type": "function"
    },
    {
      "inputs": [
        {
          "internalType": "uint256",
          "name": "_upc",
          "type": "uint256"
        }
      ],
      "name": "triggerFoodProcessing",
      "outputs": [],
      "stateMutability": "nonpayable",
      "type": "function"
    },
    {
      "inputs": [
        {
          "internalType": "uint256",
          "name": "_upc",
          "type": "uint256"
        }
      ],
      "name": "triggerFoodPacking",
      "outputs": [],
      "stateMutability": "nonpayable",
      "type": "function"
    },
    {
      "inputs": [
        {
          "internalType": "uint256",
          "name": "_upc",
          "type": "uint256"
        }
      ],
      "name": "triggerLogistic",
      "outputs": [],
      "stateMutability": "nonpayable",
      "type": "function"
    },
    {
      "inputs": [
        {
          "internalType": "uint256",
          "name": "_upc",
          "type": "uint256"
        }
      ],
      "name": "triggerRetail",
      "outputs": [],
      "stateMutability": "nonpayable",
      "type": "function"
    },
    {
      "inputs": [
        {
          "internalType": "uint256",
          "name": "_upc",
          "type": "uint256"
        }
      ],
      "name": "getProvenanceOne",
      "outputs": [
        {
          "internalType": "uint256",
          "name": "UPC",
          "type": "uint256"
        },
        {
          "internalType": "uint256",
          "name": "SKU",
          "type": "uint256"
        },
        {
          "internalType": "string",
          "name": "name",
          "type": "string"
        },
        {
          "internalType": "uint256",
          "name": "price",
          "type": "uint256"
        },
        {
          "internalType": "string",
          "name": "location",
          "type": "string"
        }
      ],
      "stateMutability": "nonpayable",
      "type": "function"
    },
    {
      "inputs": [
        {
          "internalType": "uint256",
          "name": "_upc",
          "type": "uint256"
        }
      ],
      "name": "getProvenanceTwo",
      "outputs": [
        {
          "internalType": "string",
          "name": "date",
          "type": "string"
        },
        {
          "internalType": "address",
          "name": "owner",
          "type": "address"
        },
        {
          "internalType": "uint256",
          "name": "parent_product",
          "type": "uint256"
        },
        {
          "internalType": "enum MainFoodSupplyChain.SupplyChainState",
          "name": "state",
          "type": "uint8"
        }
      ],
      "stateMutability": "nonpayable",
      "type": "function"
    },
    {
      "inputs": [
        {
          "internalType": "uint256",
          "name": "_upc",
          "type": "uint256"
        }
      ],
      "name": "getProvenanceThree",
      "outputs": [
        {
          "internalType": "address",
          "name": "processing_company",
          "type": "address"
        },
        {
          "internalType": "address",
          "name": "packing_company",
          "type": "address"
        },
        {
          "internalType": "address",
          "name": "logistic_comapny",
          "type": "address"
        },
        {
          "internalType": "address",
          "name": "retail",
          "type": "address"
        }
      ],
      "stateMutability": "nonpayable",
      "type": "function"
    },
    {
      "inputs": [
        {
          "internalType": "uint256",
          "name": "_upc",
          "type": "uint256"
        }
      ],
      "name": "getBlockHistory",
      "outputs": [
        {
          "internalType": "uint256",
          "name": "blockProcessingCompany",
          "type": "uint256"
        },
        {
          "internalType": "uint256",
          "name": "blockPackingCompany",
          "type": "uint256"
        },
        {
          "internalType": "uint256",
          "name": "blockLogisticCompany",
          "type": "uint256"
        },
        {
          "internalType": "uint256",
          "name": "blockRetail",
          "type": "uint256"
        }
      ],
      "stateMutability": "nonpayable",
      "type": "function"
    },
    {
      "inputs": [
        {
          "internalType": "uint256",
          "name": "_upc",
          "type": "uint256"
        }
      ],
      "name": "getProduct",
      "outputs": [],
      "stateMutability": "nonpayable",
      "type": "function"
    }
  ],
  "bytecode": "0x608060405233600360006101000a81548173ffffffffffffffffffffffffffffffffffffffff021916908373ffffffffffffffffffffffffffffffffffffffff1602179055506001600081905550611c868061005c6000396000f3fe608060405234801561001057600080fd5b506004361061009e5760003560e01c806367abacb31161006657806367abacb31461017557806394441857146101a8578063b9db15b4146101c4578063e1726509146101e0578063eb3ff6e1146101fc5761009e565b8063284335ab146100a35780632ae6f48a146100bf578063331a4b18146100f25780633cc4fbef146101255780635528596314610159575b600080fd5b6100bd60048036038101906100b89190611512565b610218565b005b6100d960048036038101906100d49190611512565b6103ef565b6040516100e994939291906116f2565b60405180910390f35b61010c60048036038101906101079190611512565b6105f5565b60405161011c9493929190611737565b60405180910390f35b61013f600480360381019061013a9190611512565b6107e0565b60405161015095949392919061184b565b60405180910390f35b610173600480360381019061016e9190611512565b610a1a565b005b61018f600480360381019061018a9190611512565b610bf2565b60405161019f949392919061190d565b60405180910390f35b6101c260048036038101906101bd9190611512565b610cf8565b005b6101de60048036038101906101d99190611512565b610ed0565b005b6101fa60048036038101906101f59190611512565b610f94565b005b6102166004803603810190610211919061153b565b61116c565b005b336001600083815260200190815260200160002060070160006101000a81548173ffffffffffffffffffffffffffffffffffffffff021916908373ffffffffffffffffffffffffffffffffffffffff160217905550336001600083815260200190815260200160002060090160016101000a81548173ffffffffffffffffffffffffffffffffffffffff021916908373ffffffffffffffffffffffffffffffffffffffff160217905550600180600083815260200190815260200160002060090160006101000a81548160ff02191690836005811115610321577f4e487b7100000000000000000000000000000000000000000000000000000000600052602160045260246000fd5b02179055504360026000838152602001908152602001600020600001819055507f9fdc44ac58b9fe7d2333f369e0b307039b2dce172f8832152c47c51b167803cc81600160008481526020019081526020016000206003016001600085815260200190815260200160002060090160009054906101000a900460ff1660058111156103d5577f4e487b7100000000000000000000000000000000000000000000000000000000600052602160045260246000fd5b6040516103e49392919061180d565b60405180910390a150565b6000806000807f27210cb13e3d662ca9d214da34ade5fb701d9d1f78a8f647e1467026187ffbe66001600087815260200190815260200160002060090160019054906101000a900473ffffffffffffffffffffffffffffffffffffffff1660016000888152602001908152602001600020600a0160009054906101000a900473ffffffffffffffffffffffffffffffffffffffff1660016000898152602001908152602001600020600b0160009054906101000a900473ffffffffffffffffffffffffffffffffffffffff16600160008a8152602001908152602001600020600c0160009054906101000a900473ffffffffffffffffffffffffffffffffffffffff1660405161050294939291906116f2565b60405180910390a16001600086815260200190815260200160002060090160019054906101000a900473ffffffffffffffffffffffffffffffffffffffff1660016000878152602001908152602001600020600a0160009054906101000a900473ffffffffffffffffffffffffffffffffffffffff1660016000888152602001908152602001600020600b0160009054906101000a900473ffffffffffffffffffffffffffffffffffffffff1660016000898152602001908152602001600020600c0160009054906101000a900473ffffffffffffffffffffffffffffffffffffffff1693509350935093509193509193565b606060008060007f01db9728d2d6682e894db17d26142ec47d769a5711e0ff735d91ad1356e9aebc600160008781526020019081526020016000206006016001600088815260200190815260200160002060070160009054906101000a900473ffffffffffffffffffffffffffffffffffffffff166001600089815260200190815260200160002060080154600160008a815260200190815260200160002060090160009054906101000a900460ff166040516106b59493929190611783565b60405180910390a1600160008681526020019081526020016000206006016001600087815260200190815260200160002060070160009054906101000a900473ffffffffffffffffffffffffffffffffffffffff1660016000888152602001908152602001600020600801546001600089815260200190815260200160002060090160009054906101000a900460ff1683805461075190611add565b80601f016020809104026020016040519081016040528092919081815260200182805461077d90611add565b80156107ca5780601f1061079f576101008083540402835291602001916107ca565b820191906000526020600020905b8154815290600101906020018083116107ad57829003601f168201915b5050505050935093509350935093509193509193565b6000806060600060607f3195d228a84f6c80b3b2d556f7e78816e5c71485d88972c120a284994ebc950d866001600089815260200190815260200160002060020154600160008a8152602001908152602001600020600301600160008b815260200190815260200160002060040154600160008c81526020019081526020016000206005016040516108769594939291906118ac565b60405180910390a16001600087815260200190815260200160002060010154600160008881526020019081526020016000206002015460016000898152602001908152602001600020600301600160008a815260200190815260200160002060040154600160008b81526020019081526020016000206005018280546108fb90611add565b80601f016020809104026020016040519081016040528092919081815260200182805461092790611add565b80156109745780601f1061094957610100808354040283529160200191610974565b820191906000526020600020905b81548152906001019060200180831161095757829003601f168201915b5050505050925080805461098790611add565b80601f01602080910402602001604051908101604052809291908181526020018280546109b390611add565b8015610a005780601f106109d557610100808354040283529160200191610a00565b820191906000526020600020905b8154815290600101906020018083116109e357829003601f168201915b505050505090509450945094509450945091939590929450565b336001600083815260200190815260200160002060070160006101000a81548173ffffffffffffffffffffffffffffffffffffffff021916908373ffffffffffffffffffffffffffffffffffffffff1602179055503360016000838152602001908152602001600020600b0160006101000a81548173ffffffffffffffffffffffffffffffffffffffff021916908373ffffffffffffffffffffffffffffffffffffffff16021790555060036001600083815260200190815260200160002060090160006101000a81548160ff02191690836005811115610b24577f4e487b7100000000000000000000000000000000000000000000000000000000600052602160045260246000fd5b02179055504360026000838152602001908152602001600020600201819055507fa0c0874815b5f91d5e209bdf6683cfa63d534c69919deed1ec4adfdae713260181600160008481526020019081526020016000206003016001600085815260200190815260200160002060090160009054906101000a900460ff166005811115610bd8577f4e487b7100000000000000000000000000000000000000000000000000000000600052602160045260246000fd5b604051610be79392919061180d565b60405180910390a150565b6000806000807fe32dc708ee713ba27b8052099e16db81804be7d0c1fed23d6a8e2d77cc0e7a49600260008781526020019081526020016000206000015460026000888152602001908152602001600020600101546002600089815260200190815260200160002060020154600260008a815260200190815260200160002060030154604051610c85949392919061190d565b60405180910390a1600260008681526020019081526020016000206000015460026000878152602001908152602001600020600101546002600088815260200190815260200160002060020154600260008981526020019081526020016000206003015493509350935093509193509193565b336001600083815260200190815260200160002060070160006101000a81548173ffffffffffffffffffffffffffffffffffffffff021916908373ffffffffffffffffffffffffffffffffffffffff1602179055503360016000838152602001908152602001600020600a0160006101000a81548173ffffffffffffffffffffffffffffffffffffffff021916908373ffffffffffffffffffffffffffffffffffffffff16021790555060026001600083815260200190815260200160002060090160006101000a81548160ff02191690836005811115610e02577f4e487b7100000000000000000000000000000000000000000000000000000000600052602160045260246000fd5b02179055504360026000838152602001908152602001600020600101819055507ff69d8b73f8d1898f74a6ab6547f678ca371825fd215970011d2c9620cfac3df881600160008481526020019081526020016000206003016001600085815260200190815260200160002060090160009054906101000a900460ff166005811115610eb6577f4e487b7100000000000000000000000000000000000000000000000000000000600052602160045260246000fd5b604051610ec59392919061180d565b60405180910390a150565b7f4d4b99936a0b4eeb189b67c5fd15dd44f30bae6754bd5ead0a10051a97ed48576001600083815260200190815260200160002060010154600160008481526020019081526020016000206003016001600085815260200190815260200160002060090160009054906101000a900460ff166005811115610f7a577f4e487b7100000000000000000000000000000000000000000000000000000000600052602160045260246000fd5b604051610f899392919061180d565b60405180910390a150565b336001600083815260200190815260200160002060070160006101000a81548173ffffffffffffffffffffffffffffffffffffffff021916908373ffffffffffffffffffffffffffffffffffffffff1602179055503360016000838152602001908152602001600020600c0160006101000a81548173ffffffffffffffffffffffffffffffffffffffff021916908373ffffffffffffffffffffffffffffffffffffffff16021790555060046001600083815260200190815260200160002060090160006101000a81548160ff0219169083600581111561109e577f4e487b7100000000000000000000000000000000000000000000000000000000600052602160045260246000fd5b02179055504360026000838152602001908152602001600020600301819055507f09e10f5963f04eeaada7dd1fe3f071f6d4647d4468ada8e5c36def33785208c281600160008481526020019081526020016000206003016001600085815260200190815260200160002060090160009054906101000a900460ff166005811115611152577f4e487b7100000000000000000000000000000000000000000000000000000000600052602160045260246000fd5b6040516111619392919061180d565b60405180910390a150565b8560016000888152602001908152602001600020600101819055506000546001600088815260200190815260200160002060020181905550846001600088815260200190815260200160002060030190805190602001906111ce9291906113f2565b50836001600088815260200190815260200160002060040181905550826001600088815260200190815260200160002060050190805190602001906112149291906113f2565b508160016000888152602001908152602001600020600601908051906020019061123f9291906113f2565b508060016000888152602001908152602001600020600801819055506000548661126991906119e4565b600160008881526020019081526020016000206000018190555060006001600088815260200190815260200160002060090160006101000a81548160ff021916908360058111156112e3577f4e487b7100000000000000000000000000000000000000000000000000000000600052602160045260246000fd5b0217905550336001600088815260200190815260200160002060070160006101000a81548173ffffffffffffffffffffffffffffffffffffffff021916908373ffffffffffffffffffffffffffffffffffffffff1602179055507f28f7dfd93d7d5643b6804f84b5036c4b8bffdf2f7ab21e1170dcdb20faac295e8686600160008a815260200190815260200160002060090160009054906101000a900460ff1660058111156113bc577f4e487b7100000000000000000000000000000000000000000000000000000000600052602160045260246000fd5b6040516113cb939291906117cf565b60405180910390a16000808154809291906113e590611b0f565b9190505550505050505050565b8280546113fe90611add565b90600052602060002090601f0160209004810192826114205760008555611467565b82601f1061143957805160ff1916838001178555611467565b82800160010185558215611467579182015b8281111561146657825182559160200191906001019061144b565b5b5090506114749190611478565b5090565b5b80821115611491576000816000905550600101611479565b5090565b60006114a86114a384611983565b611952565b9050828152602081018484840111156114c057600080fd5b6114cb848285611a9b565b509392505050565b600082601f8301126114e457600080fd5b81356114f4848260208601611495565b91505092915050565b60008135905061150c81611c39565b92915050565b60006020828403121561152457600080fd5b6000611532848285016114fd565b91505092915050565b60008060008060008060c0878903121561155457600080fd5b600061156289828a016114fd565b965050602087013567ffffffffffffffff81111561157f57600080fd5b61158b89828a016114d3565b955050604061159c89828a016114fd565b945050606087013567ffffffffffffffff8111156115b957600080fd5b6115c589828a016114d3565b935050608087013567ffffffffffffffff8111156115e257600080fd5b6115ee89828a016114d3565b92505060a06115ff89828a016114fd565b9150509295509295509295565b61161581611a3a565b82525050565b61162481611a89565b82525050565b6000611635826119c8565b61163f81856119d3565b935061164f818560208601611aaa565b61165881611c14565b840191505092915050565b6000815461167081611add565b61167a81866119d3565b9450600182166000811461169557600181146116a7576116da565b60ff19831686526020860193506116da565b6116b0856119b3565b60005b838110156116d2578154818901526001820191506020810190506116b3565b808801955050505b50505092915050565b6116ec81611a7f565b82525050565b6000608082019050611707600083018761160c565b611714602083018661160c565b611721604083018561160c565b61172e606083018461160c565b95945050505050565b60006080820190508181036000830152611751818761162a565b9050611760602083018661160c565b61176d60408301856116e3565b61177a606083018461161b565b95945050505050565b6000608082019050818103600083015261179d8187611663565b90506117ac602083018661160c565b6117b960408301856116e3565b6117c6606083018461161b565b95945050505050565b60006060820190506117e460008301866116e3565b81810360208301526117f6818561162a565b905061180560408301846116e3565b949350505050565b600060608201905061182260008301866116e3565b81810360208301526118348185611663565b905061184360408301846116e3565b949350505050565b600060a08201905061186060008301886116e3565b61186d60208301876116e3565b818103604083015261187f818661162a565b905061188e60608301856116e3565b81810360808301526118a0818461162a565b90509695505050505050565b600060a0820190506118c160008301886116e3565b6118ce60208301876116e3565b81810360408301526118e08186611663565b90506118ef60608301856116e3565b81810360808301526119018184611663565b90509695505050505050565b600060808201905061192260008301876116e3565b61192f60208301866116e3565b61193c60408301856116e3565b61194960608301846116e3565b95945050505050565b6000604051905081810181811067ffffffffffffffff8211171561197957611978611be5565b5b8060405250919050565b600067ffffffffffffffff82111561199e5761199d611be5565b5b601f19601f8301169050602081019050919050565b60008190508160005260206000209050919050565b600081519050919050565b600082825260208201905092915050565b60006119ef82611a7f565b91506119fa83611a7f565b9250827fffffffffffffffffffffffffffffffffffffffffffffffffffffffffffffffff03821115611a2f57611a2e611b58565b5b828201905092915050565b6000611a4582611a5f565b9050919050565b6000819050611a5a82611c25565b919050565b600073ffffffffffffffffffffffffffffffffffffffff82169050919050565b6000819050919050565b6000611a9482611a4c565b9050919050565b82818337600083830152505050565b60005b83811015611ac8578082015181840152602081019050611aad565b83811115611ad7576000848401525b50505050565b60006002820490506001821680611af557607f821691505b60208210811415611b0957611b08611bb6565b5b50919050565b6000611b1a82611a7f565b91507fffffffffffffffffffffffffffffffffffffffffffffffffffffffffffffffff821415611b4d57611b4c611b58565b5b600182019050919050565b7f4e487b7100000000000000000000000000000000000000000000000000000000600052601160045260246000fd5b7f4e487b7100000000000000000000000000000000000000000000000000000000600052602160045260246000fd5b7f4e487b7100000000000000000000000000000000000000000000000000000000600052602260045260246000fd5b7f4e487b7100000000000000000000000000000000000000000000000000000000600052604160045260246000fd5b6000601f19601f8301169050919050565b60068110611c3657611c35611b87565b5b50565b611c4281611a7f565b8114611c4d57600080fd5b5056fea2646970667358221220033b58a869c439af7207243124dcc982a48af1aab8a2d0fd6a161cb24014912b64736f6c63430008000033",
  "immutableReferences": {},
  "source": "pragma solidity ^0.8.0;\n\ncontract MainFoodSupplyChain {\n\n\n    // Stock Keeping Unit \n\n    uint SKU;\n\n    // Supply chain state\n\n    enum SupplyChainState {\n        producedByFarmer,\n        processing,\n        packing,\n        in_transit,\n        receivedAtRetail,\n        purchasedByCustomer\n    }\n\n    // Prouct information\n\n    struct Product {\n        uint product_id;\n        uint UPC;\n        uint SKU;\n        string name;\n        uint price;\n        string location;\n        string date;\n        address owner;\n        uint parent_product;\n        SupplyChainState state;\n\n        address processing_company;\n        address packing_company;\n        address logistic_comapny;\n        address retail;\n    }\n\n    mapping (uint=> Product) products;\n\n\n    struct History_blocks {\n        uint Pro_C;\n        uint Pac_C;\n        uint L_C;\n        uint R;\n    }\n\n    mapping (uint=> History_blocks) product_history;\n\n  address owner;\n\n\n  constructor()  payable {\n    owner = msg.sender;\n    SKU = 1;\n      }\n\n    // Get product detail\n  event getPoductDetails(uint upc, string name, uint step);\n\n    \n    //Event 1 => Item produced by farmer or any owner \n    event ItemProduced(uint _productUPC, string _name  ,uint _step);\n\n   //Event 2 => Item reached at processing company \n    event ItemInProcessing(uint _productUPC, string _name  ,uint _step);\n\n    //Event 3 => Item reached at packing facility\n    event ItemAtPackingFacility(uint _productUPC, string _name  ,uint _step);\n\n    //Event 4 => Item in transit\n    event ItemInTransit(uint _productUPC, string _name  ,uint _step);\n\n    //Event 4 => Item reached at retail company\n    event ItemReachedAtRetail(uint _productUPC, string _name  ,uint _step);\n\n //Event 5 => Get block nuber\n    event BlockNumber(uint processingCompany, uint packingCompany, uint logisticCompany, uint retailCompany);\n\n      event History1(uint upc, uint sku, string name, uint price, string location);\n    event History2(string date, address owner, uint parent_product, SupplyChainState state);\n       event History3(address processing_company, address packing_company,\n    address logistic_comapny, address retail);\n\n\n    // Farmers adding product to blockchain \n\n\n    // farmer address - address 1st \n    // address constant public ownerFarmer = 0x3fdB18E93232F67a3f697f6ecf0fDdD22157fF2B;\n\n    function produceItem(\n        uint _UPC,\n        string memory _name,\n        uint _price,\n        string memory _location,\n        string memory _date,\n        uint _parent_product) public  {\n\n            // check if farmer or not\n        // require(msg.sender == ownerFarmer, \"Only Farmer/Owner can produce item\");\n        products[_UPC].UPC = _UPC;\n        products[_UPC].SKU = SKU;\n        products[_UPC].name = _name;\n        products[_UPC].price = _price;\n        products[_UPC].location = _location;\n        products[_UPC].date = _date;\n        products[_UPC].parent_product = _parent_product;\n        products[_UPC].product_id = _UPC + SKU;\n        products[_UPC].state = SupplyChainState.producedByFarmer;\n        products[_UPC].owner = msg.sender;\n\n        // emit event \n        emit ItemProduced(_UPC, _name ,uint(products[_UPC].state));\n\n        SKU++;\n\n    }\n\n\n    // Trigger supply chain to food processing \n    function triggerFoodProcessing(uint _upc) public {\n        // check if the address is of Food Processing Company\n        // Give ownership to Food Processing company \n\n        products[_upc].owner = msg.sender;\n        products[_upc].processing_company = msg.sender;\n        products[_upc].state = SupplyChainState.processing;\n\n        //Add block number for history \n\n        product_history[_upc].Pro_C = block.number;\n\n       emit ItemInProcessing(_upc,  products[_upc].name ,uint(products[_upc].state));\n \n\n    }\n\n    // Trigger supply chain to food packing\n\n  function triggerFoodPacking(uint _upc) public {\n        // check if the address is of Food Processing Company\n        // Give ownership to Food Packing company \n\n        products[_upc].owner = msg.sender;\n        products[_upc].packing_company = msg.sender;\n        products[_upc].state = SupplyChainState.packing;\n\n        //Add block number for history \n\n        product_history[_upc].Pac_C = block.number;\n\n       emit ItemAtPackingFacility(_upc,  products[_upc].name ,uint(products[_upc].state));\n \n\n    }\n    // Trigger supply chain to transport\n\n  function triggerLogistic(uint _upc) public {\n        // check if the address is of Food Logistic Company\n        // Give ownership to Food Packing company \n\n        products[_upc].owner = msg.sender;\n        products[_upc].logistic_comapny = msg.sender;\n        products[_upc].state = SupplyChainState.in_transit;\n\n        //Add block number for history \n\n        product_history[_upc].L_C = block.number;\n\n       emit ItemInTransit(_upc,  products[_upc].name ,uint(products[_upc].state));\n \n\n    }\n    // Trigger supply chain to retail \n  function triggerRetail(uint _upc) public {\n        // check if the address is of Food Logistic Company\n        // Give ownership to Food Packing company \n\n        products[_upc].owner = msg.sender;\n        products[_upc].retail = msg.sender;\n        products[_upc].state = SupplyChainState.receivedAtRetail;\n\n        //Add block number for history \n\n        product_history[_upc].R = block.number;\n\n       emit ItemReachedAtRetail(_upc,  products[_upc].name ,uint(products[_upc].state));\n \n\n    }\n\n\n    // Customer bought the product\n\n\n\n    // check provenance of product - customer \n\n    function getProvenanceOne(uint _upc) public  returns(\n         uint UPC,\n        uint SKU,\n        string memory name,\n        uint price,\n        string memory location\n    ) {\n\n\n        emit History1(_upc,products[_upc].SKU,products[_upc].name,products[_upc].price,products[_upc].location);\n\n            return (\n                uint(products[_upc].UPC),\n                products[_upc].SKU,\n                products[_upc].name,\n                products[_upc].price,\n                products[_upc].location\n            );\n    }\n    \n\n\n\n    function getProvenanceTwo(uint _upc) public  returns(\n        string memory date,\n        address owner,\n        uint parent_product,\n        SupplyChainState state\n    ) {\n                emit History2(products[_upc].date,\n                products[_upc].owner,\n                products[_upc].parent_product,\n                products[_upc].state);\n            return (\n                products[_upc].date,\n                products[_upc].owner,\n                products[_upc].parent_product,\n                products[_upc].state\n\n\n            );\n    }\n\n\n  function getProvenanceThree(uint _upc) public  returns(\n      address processing_company,\n        address packing_company,\n        address logistic_comapny,\n        address retail\n    ) {\n              emit History3 ( products[_upc].processing_company,\n                products[_upc].packing_company,\n                products[_upc].logistic_comapny,\n                products[_upc].retail);\n            return (\n                products[_upc].processing_company,\n                products[_upc].packing_company,\n                products[_upc].logistic_comapny,\n                products[_upc].retail\n\n\n            );\n    }\n\n\n    function getBlockHistory(uint _upc) public  returns (\n        uint blockProcessingCompany,\n        uint blockPackingCompany,\n        uint blockLogisticCompany,\n        uint blockRetail\n    ) {\n\n      emit BlockNumber(product_history[_upc].Pro_C,\n        product_history[_upc].Pac_C,\n        product_history[_upc].L_C,\n        product_history[_upc].R);\n\n        return (\n        product_history[_upc].Pro_C,\n        product_history[_upc].Pac_C,\n        product_history[_upc].L_C,\n        product_history[_upc].R\n        );\n    \n\n    }\n\n \n     \n  function getProduct(uint _upc) public {\n        emit getPoductDetails(products[_upc].UPC,products[_upc].name, uint(products[_upc].state));\n  }\n\n    \n}\n\n",
  "sourcePath": "E:\\Solidity Udemy\\FoodSupplyChain\\contracts\\MainFoodSupplyChain.sol",
  "compiler": {
    "name": "solc",
    "version": "0.8.0+commit.c7dfd78e.Emscripten.clang"
  },
  "schemaVersion": "3.4.4",
  "updatedAt": "2022-05-17T08:21:45.759Z",
  "devdoc": {
    "kind": "dev",
    "methods": {},
    "version": 1
  },
  "userdoc": {
    "kind": "user",
    "methods": {},
    "version": 1
  }
}